{
  "contractName": "MayoralToken",
  "abi": [
    {
      "inputs": [
        {
          "internalType": "string",
          "name": "_name",
          "type": "string"
        },
        {
          "internalType": "string",
          "name": "_symbol",
          "type": "string"
        },
        {
          "internalType": "uint256",
          "name": "_decimal",
          "type": "uint256"
        },
        {
          "internalType": "uint256",
          "name": "_supply",
          "type": "uint256"
        }
      ],
      "stateMutability": "nonpayable",
      "type": "constructor"
    },
    {
      "anonymous": false,
      "inputs": [
        {
          "indexed": true,
          "internalType": "address",
          "name": "_from",
          "type": "address"
        }
      ],
      "name": "PAUSE",
      "type": "event"
    },
    {
      "anonymous": false,
      "inputs": [
        {
          "indexed": true,
          "internalType": "address",
          "name": "_from",
          "type": "address"
        }
      ],
      "name": "UNPAUSE",
      "type": "event"
    },
    {
      "anonymous": false,
      "inputs": [
        {
          "indexed": true,
          "internalType": "address",
          "name": "_from",
          "type": "address"
        },
        {
          "indexed": true,
          "internalType": "address",
          "name": "_to",
          "type": "address"
        },
        {
          "indexed": false,
          "internalType": "uint256",
          "name": "_value",
          "type": "uint256"
        }
      ],
      "name": "approve",
      "type": "event"
    },
    {
      "anonymous": false,
      "inputs": [
        {
          "indexed": true,
          "internalType": "address",
          "name": "_from",
          "type": "address"
        },
        {
          "indexed": false,
          "internalType": "uint256",
          "name": "_value",
          "type": "uint256"
        }
      ],
      "name": "burn",
      "type": "event"
    },
    {
      "anonymous": false,
      "inputs": [
        {
          "indexed": true,
          "internalType": "address",
          "name": "_from",
          "type": "address"
        },
        {
          "indexed": true,
          "internalType": "address",
          "name": "_to",
          "type": "address"
        },
        {
          "indexed": false,
          "internalType": "uint256",
          "name": "_value",
          "type": "uint256"
        }
      ],
      "name": "decreasedallowance",
      "type": "event"
    },
    {
      "anonymous": false,
      "inputs": [
        {
          "indexed": true,
          "internalType": "address",
          "name": "_from",
          "type": "address"
        },
        {
          "indexed": true,
          "internalType": "address",
          "name": "_to",
          "type": "address"
        },
        {
          "indexed": false,
          "internalType": "uint256",
          "name": "_value",
          "type": "uint256"
        }
      ],
      "name": "increasedallowance",
      "type": "event"
    },
    {
      "anonymous": false,
      "inputs": [
        {
          "indexed": true,
          "internalType": "address",
          "name": "_from",
          "type": "address"
        },
        {
          "indexed": false,
          "internalType": "uint256",
          "name": "_value",
          "type": "uint256"
        }
      ],
      "name": "mint",
      "type": "event"
    },
    {
      "anonymous": false,
      "inputs": [
        {
          "indexed": true,
          "internalType": "address",
          "name": "_to",
          "type": "address"
        }
      ],
      "name": "renounceownership",
      "type": "event"
    },
    {
      "anonymous": false,
      "inputs": [
        {
          "indexed": true,
          "internalType": "address",
          "name": "_from",
          "type": "address"
        },
        {
          "indexed": true,
          "internalType": "address",
          "name": "_to",
          "type": "address"
        },
        {
          "indexed": false,
          "internalType": "uint256",
          "name": "_value",
          "type": "uint256"
        }
      ],
      "name": "transfer",
      "type": "event"
    },
    {
      "anonymous": false,
      "inputs": [
        {
          "indexed": true,
          "internalType": "address",
          "name": "_to",
          "type": "address"
        },
        {
          "indexed": false,
          "internalType": "uint256",
          "name": "_value",
          "type": "uint256"
        }
      ],
      "name": "withdraw",
      "type": "event"
    },
    {
      "inputs": [],
      "name": "PauseContract",
      "outputs": [
        {
          "internalType": "bool",
          "name": "success",
          "type": "bool"
        }
      ],
      "stateMutability": "nonpayable",
      "type": "function"
    },
    {
      "inputs": [],
      "name": "UnpauseContract",
      "outputs": [
        {
          "internalType": "bool",
          "name": "success",
          "type": "bool"
        }
      ],
      "stateMutability": "nonpayable",
      "type": "function"
    },
    {
      "inputs": [],
      "name": "ShowOwner",
      "outputs": [
        {
          "internalType": "address",
          "name": "",
          "type": "address"
        }
      ],
      "stateMutability": "view",
      "type": "function",
      "constant": true
    },
    {
      "inputs": [],
      "name": "ReturnName",
      "outputs": [
        {
          "internalType": "string",
          "name": "",
          "type": "string"
        }
      ],
      "stateMutability": "view",
      "type": "function",
      "constant": true
    },
    {
      "inputs": [],
      "name": "ReturnSymbol",
      "outputs": [
        {
          "internalType": "string",
          "name": "",
          "type": "string"
        }
      ],
      "stateMutability": "view",
      "type": "function",
      "constant": true
    },
    {
      "inputs": [],
      "name": "ReturnDecimal",
      "outputs": [
        {
          "internalType": "uint256",
          "name": "",
          "type": "uint256"
        }
      ],
      "stateMutability": "view",
      "type": "function",
      "constant": true
    },
    {
      "inputs": [],
      "name": "ShowTotalSupply",
      "outputs": [
        {
          "internalType": "uint256",
          "name": "",
          "type": "uint256"
        }
      ],
      "stateMutability": "view",
      "type": "function",
      "constant": true
    },
    {
      "inputs": [
        {
          "internalType": "address",
          "name": "_recieve",
          "type": "address"
        },
        {
          "internalType": "uint256",
          "name": "_value",
          "type": "uint256"
        }
      ],
      "name": "SetAllowance",
      "outputs": [
        {
          "internalType": "bool",
          "name": "success",
          "type": "bool"
        }
      ],
      "stateMutability": "nonpayable",
      "type": "function"
    },
    {
      "inputs": [
        {
          "internalType": "address",
          "name": "_recieve",
          "type": "address"
        },
        {
          "internalType": "uint256",
          "name": "_value",
          "type": "uint256"
        }
      ],
      "name": "IncreaseAllowance",
      "outputs": [
        {
          "internalType": "bool",
          "name": "success",
          "type": "bool"
        }
      ],
      "stateMutability": "nonpayable",
      "type": "function"
    },
    {
      "inputs": [
        {
          "internalType": "address",
          "name": "_recieve",
          "type": "address"
        },
        {
          "internalType": "uint256",
          "name": "_value",
          "type": "uint256"
        }
      ],
      "name": "DecreaseAllowance",
      "outputs": [
        {
          "internalType": "bool",
          "name": "success",
          "type": "bool"
        }
      ],
      "stateMutability": "nonpayable",
      "type": "function"
    },
    {
      "inputs": [
        {
          "internalType": "address",
          "name": "_from",
          "type": "address"
        },
        {
          "internalType": "address",
          "name": "_to",
          "type": "address"
        },
        {
          "internalType": "uint256",
          "name": "_value",
          "type": "uint256"
        }
      ],
      "name": "Transfer",
      "outputs": [
        {
          "internalType": "bool",
          "name": "success",
          "type": "bool"
        }
      ],
      "stateMutability": "nonpayable",
      "type": "function"
    },
    {
      "inputs": [
        {
          "internalType": "address",
          "name": "_who",
          "type": "address"
        }
      ],
      "name": "CheckBalance",
      "outputs": [
        {
          "internalType": "uint256",
          "name": "",
          "type": "uint256"
        }
      ],
      "stateMutability": "view",
      "type": "function",
      "constant": true
    },
    {
      "inputs": [
        {
          "internalType": "address",
          "name": "_from",
          "type": "address"
        },
        {
          "internalType": "uint256",
          "name": "_value",
          "type": "uint256"
        }
      ],
      "name": "Mint",
      "outputs": [
        {
          "internalType": "bool",
          "name": "success",
          "type": "bool"
        }
      ],
      "stateMutability": "nonpayable",
      "type": "function"
    },
    {
      "inputs": [
        {
          "internalType": "address",
          "name": "_from",
          "type": "address"
        },
        {
          "internalType": "uint256",
          "name": "_value",
          "type": "uint256"
        }
      ],
      "name": "Burn",
      "outputs": [
        {
          "internalType": "bool",
          "name": "success",
          "type": "bool"
        }
      ],
      "stateMutability": "nonpayable",
      "type": "function"
    },
    {
      "inputs": [
        {
          "internalType": "address payable",
          "name": "_to",
          "type": "address"
        },
        {
          "internalType": "uint256",
          "name": "_value",
          "type": "uint256"
        }
      ],
      "name": "Withdraw",
      "outputs": [
        {
          "internalType": "bool",
          "name": "success",
          "type": "bool"
        }
      ],
      "stateMutability": "nonpayable",
      "type": "function"
    },
    {
      "inputs": [
        {
          "internalType": "address",
          "name": "_to",
          "type": "address"
        }
      ],
      "name": "Renounce",
      "outputs": [
        {
          "internalType": "bool",
          "name": "success",
          "type": "bool"
        }
      ],
      "stateMutability": "nonpayable",
      "type": "function"
    },
    {
      "inputs": [
        {
          "internalType": "address",
          "name": "_to",
          "type": "address"
        }
      ],
      "name": "CheckAllowance",
      "outputs": [
        {
          "internalType": "uint256",
          "name": "",
          "type": "uint256"
        }
      ],
      "stateMutability": "view",
      "type": "function",
      "constant": true
    }
  ],
  "bytecode": "0x60806040523480156200001157600080fd5b5060405162002b2338038062002b23833981810160405281019062000037919062000671565b62000070336200006484600a6200004f9190620008a4565b84620001db60201b620016791790919060201c565b6200022460201b60201c565b503373ffffffffffffffffffffffffffffffffffffffff167f40c10f19c047ae7dfa66d6312b683d2ea3dfbcb4159e96b967c5f4b0a86f284282604051620000b9919062000906565b60405180910390a28360029080519060200190620000d9929190620003e9565b508260039080519060200190620000f2929190620003e9565b508160048190555033600160006101000a81548173ffffffffffffffffffffffffffffffffffffffff021916908373ffffffffffffffffffffffffffffffffffffffff16021790555060005460066000600160009054906101000a900473ffffffffffffffffffffffffffffffffffffffff1673ffffffffffffffffffffffffffffffffffffffff1673ffffffffffffffffffffffffffffffffffffffff168152602001908152602001600020819055506001600860006101000a81548160ff02191690836001811115620001cc57620001cb62000923565b5b02179055505050505062000b8e565b6000808284620001ec919062000952565b905060008414806200020a5750828482620002089190620009e2565b145b6200021a576200021962000a1a565b5b8091505092915050565b60003373ffffffffffffffffffffffffffffffffffffffff16600160009054906101000a9050505060011515600560009054906101000a900460ff16151514156200026e57600080fd5b600073ffffffffffffffffffffffffffffffffffffffff168373ffffffffffffffffffffffffffffffffffffffff161415620002a957600080fd5b6000821415620002f0576040517f08c379a0000000000000000000000000000000000000000000000000000000008152600401620002e79062000aaa565b60405180910390fd5b6200030c82600054620003b860201b620016ba1790919060201c565b6000819055506200036b82600660008673ffffffffffffffffffffffffffffffffffffffff1673ffffffffffffffffffffffffffffffffffffffff16815260200190815260200160002054620003b860201b620016ba1790919060201c565b600660008573ffffffffffffffffffffffffffffffffffffffff1673ffffffffffffffffffffffffffffffffffffffff168152602001908152602001600020819055506001905092915050565b6000808284620003c9919062000acc565b905083811015620003df57620003de62000a1a565b5b8091505092915050565b828054620003f79062000b58565b90600052602060002090601f0160209004810192826200041b576000855562000467565b82601f106200043657805160ff191683800117855562000467565b8280016001018555821562000467579182015b828111156200046657825182559160200191906001019062000449565b5b5090506200047691906200047a565b5090565b5b80821115620004955760008160009055506001016200047b565b5090565b6000604051905090565b600080fd5b600080fd5b600080fd5b600080fd5b6000601f19601f8301169050919050565b7f4e487b7100000000000000000000000000000000000000000000000000000000600052604160045260246000fd5b6200050282620004b7565b810181811067ffffffffffffffff82111715620005245762000523620004c8565b5b80604052505050565b60006200053962000499565b9050620005478282620004f7565b919050565b600067ffffffffffffffff8211156200056a5762000569620004c8565b5b6200057582620004b7565b9050602081019050919050565b60005b83811015620005a257808201518184015260208101905062000585565b83811115620005b2576000848401525b50505050565b6000620005cf620005c9846200054c565b6200052d565b905082815260208101848484011115620005ee57620005ed620004b2565b5b620005fb84828562000582565b509392505050565b600082601f8301126200061b576200061a620004ad565b5b81516200062d848260208601620005b8565b91505092915050565b6000819050919050565b6200064b8162000636565b81146200065757600080fd5b50565b6000815190506200066b8162000640565b92915050565b600080600080608085870312156200068e576200068d620004a3565b5b600085015167ffffffffffffffff811115620006af57620006ae620004a8565b5b620006bd8782880162000603565b945050602085015167ffffffffffffffff811115620006e157620006e0620004a8565b5b620006ef8782880162000603565b935050604062000702878288016200065a565b925050606062000715878288016200065a565b91505092959194509250565b7f4e487b7100000000000000000000000000000000000000000000000000000000600052601160045260246000fd5b60008160011c9050919050565b6000808291508390505b6001851115620007af5780860481111562000787576200078662000721565b5b6001851615620007975780820291505b8081029050620007a78562000750565b945062000767565b94509492505050565b600082620007ca57600190506200089d565b81620007da57600090506200089d565b8160018114620007f35760028114620007fe5762000834565b60019150506200089d565b60ff84111562000813576200081262000721565b5b8360020a9150848211156200082d576200082c62000721565b5b506200089d565b5060208310610133831016604e8410600b84101617156200086e5782820a90508381111562000868576200086762000721565b5b6200089d565b6200087d84848460016200075d565b9250905081840481111562000897576200089662000721565b5b81810290505b9392505050565b6000620008b18262000636565b9150620008be8362000636565b9250620008ed7fffffffffffffffffffffffffffffffffffffffffffffffffffffffffffffffff8484620007b8565b905092915050565b620009008162000636565b82525050565b60006020820190506200091d6000830184620008f5565b92915050565b7f4e487b7100000000000000000000000000000000000000000000000000000000600052602160045260246000fd5b60006200095f8262000636565b91506200096c8362000636565b9250817fffffffffffffffffffffffffffffffffffffffffffffffffffffffffffffffff0483118215151615620009a857620009a762000721565b5b828202905092915050565b7f4e487b7100000000000000000000000000000000000000000000000000000000600052601260045260246000fd5b6000620009ef8262000636565b9150620009fc8362000636565b92508262000a0f5762000a0e620009b3565b5b828204905092915050565b7f4e487b7100000000000000000000000000000000000000000000000000000000600052600160045260246000fd5b600082825260208201905092915050565b7f596f75206861766520696e70757420616e20696e76616c696420616d6f756e74600082015250565b600062000a9260208362000a49565b915062000a9f8262000a5a565b602082019050919050565b6000602082019050818103600083015262000ac58162000a83565b9050919050565b600062000ad98262000636565b915062000ae68362000636565b9250827fffffffffffffffffffffffffffffffffffffffffffffffffffffffffffffffff0382111562000b1e5762000b1d62000721565b5b828201905092915050565b7f4e487b7100000000000000000000000000000000000000000000000000000000600052602260045260246000fd5b6000600282049050600182168062000b7157607f821691505b6020821081141562000b885762000b8762000b29565b5b50919050565b611f858062000b9e6000396000f3fe608060405234801561001057600080fd5b506004361061010b5760003560e01c806379d968de116100a25780639d2e2422116100715780639d2e242214610308578063ad1bef1e14610326578063cc16f5db14610344578063dafb0d2214610374578063ddf252ad146103925761010b565b806379d968de1461026c57806383995b9a1461028a578063884edad9146102ba57806396ce267a146102ea5761010b565b80631c8108b1116100de5780631c8108b1146101be5780632e4d59c4146101dc5780633e7279a31461020c5780637215b96d1461023c5761010b565b80630bf4532c146101105780630e7f2be71461012e5780630f6798a51461015e5780631963a6931461018e575b600080fd5b6101186103c2565b6040516101259190611726565b60405180910390f35b610148600480360381019061014391906117d0565b6103cc565b604051610155919061182b565b60405180910390f35b610178600480360381019061017391906117d0565b6105cd565b604051610185919061182b565b60405180910390f35b6101a860048036038101906101a391906117d0565b61074e565b6040516101b5919061182b565b60405180910390f35b6101c66109d0565b6040516101d3919061182b565b60405180910390f35b6101f660048036038101906101f19190611846565b610ad8565b6040516102039190611726565b60405180910390f35b610226600480360381019061022191906117d0565b610b21565b604051610233919061182b565b60405180910390f35b61025660048036038101906102519190611846565b610d16565b6040516102639190611726565b60405180910390f35b610274610dbe565b604051610281919061182b565b60405180910390f35b6102a4600480360381019061029f9190611846565b610ecf565b6040516102b1919061182b565b60405180910390f35b6102d460048036038101906102cf91906118b1565b610ff4565b6040516102e1919061182b565b60405180910390f35b6102f26110c8565b6040516102ff9190611900565b60405180910390f35b6103106110f2565b60405161031d91906119b4565b60405180910390f35b61032e611184565b60405161033b91906119b4565b60405180910390f35b61035e600480360381019061035991906117d0565b611216565b60405161036b919061182b565b60405180910390f35b61037c6113c1565b6040516103899190611726565b60405180910390f35b6103ac60048036038101906103a791906119d6565b6113ca565b6040516103b9919061182b565b60405180910390f35b6000600454905090565b60003373ffffffffffffffffffffffffffffffffffffffff16600160009054906101000a9050505060011515600560009054906101000a900460ff161515141561041557600080fd5b600073ffffffffffffffffffffffffffffffffffffffff168373ffffffffffffffffffffffffffffffffffffffff16141561044f57600080fd5b6104de82600760003373ffffffffffffffffffffffffffffffffffffffff1673ffffffffffffffffffffffffffffffffffffffff16815260200190815260200160002060008673ffffffffffffffffffffffffffffffffffffffff1673ffffffffffffffffffffffffffffffffffffffff168152602001908152602001600020546116e690919063ffffffff16565b600760003373ffffffffffffffffffffffffffffffffffffffff1673ffffffffffffffffffffffffffffffffffffffff16815260200190815260200160002060008573ffffffffffffffffffffffffffffffffffffffff1673ffffffffffffffffffffffffffffffffffffffff168152602001908152602001600020819055508273ffffffffffffffffffffffffffffffffffffffff163373ffffffffffffffffffffffffffffffffffffffff167fbcbc2f27353563a7798372a0dfb7f4fc97a4424532d94ac5727c2b6d8445ba11846040516105bb9190611726565b60405180910390a36001905092915050565b60003373ffffffffffffffffffffffffffffffffffffffff16600160009054906101000a9050505060011515600560009054906101000a900460ff161515141561061657600080fd5b600073ffffffffffffffffffffffffffffffffffffffff168373ffffffffffffffffffffffffffffffffffffffff16141561065057600080fd5b6000821415610694576040517f08c379a000000000000000000000000000000000000000000000000000000000815260040161068b90611a75565b60405180910390fd5b6106a9826000546116ba90919063ffffffff16565b60008190555061070182600660008673ffffffffffffffffffffffffffffffffffffffff1673ffffffffffffffffffffffffffffffffffffffff168152602001908152602001600020546116ba90919063ffffffff16565b600660008573ffffffffffffffffffffffffffffffffffffffff1673ffffffffffffffffffffffffffffffffffffffff168152602001908152602001600020819055506001905092915050565b60003373ffffffffffffffffffffffffffffffffffffffff16600160009054906101000a9050505060011515600560009054906101000a900460ff161515141561079757600080fd5b600073ffffffffffffffffffffffffffffffffffffffff168373ffffffffffffffffffffffffffffffffffffffff1614156107d157600080fd5b81600660003373ffffffffffffffffffffffffffffffffffffffff1673ffffffffffffffffffffffffffffffffffffffff1681526020019081526020016000205411610852576040517f08c379a000000000000000000000000000000000000000000000000000000000815260040161084990611ae1565b60405180910390fd5b6108e182600760003373ffffffffffffffffffffffffffffffffffffffff1673ffffffffffffffffffffffffffffffffffffffff16815260200190815260200160002060008673ffffffffffffffffffffffffffffffffffffffff1673ffffffffffffffffffffffffffffffffffffffff168152602001908152602001600020546116ba90919063ffffffff16565b600760003373ffffffffffffffffffffffffffffffffffffffff1673ffffffffffffffffffffffffffffffffffffffff16815260200190815260200160002060008573ffffffffffffffffffffffffffffffffffffffff1673ffffffffffffffffffffffffffffffffffffffff168152602001908152602001600020819055508273ffffffffffffffffffffffffffffffffffffffff163373ffffffffffffffffffffffffffffffffffffffff167fe43a4c0c8b584625b0f915e64cd33950433cbbc5e42b3335ca72d313be300aec846040516109be9190611726565b60405180910390a36001905092915050565b60003373ffffffffffffffffffffffffffffffffffffffff16600160009054906101000a90505050600560009054906101000a900460ff1615610a48576040517f08c379a0000000000000000000000000000000000000000000000000000000008152600401610a3f90611b4d565b60405180910390fd5b6001600560006101000a81548160ff0219169083151502179055506000600860006101000a81548160ff02191690836001811115610a8957610a88611b6d565b5b02179055503373ffffffffffffffffffffffffffffffffffffffff167f1cfe193b29391a1d2f2f7fd0c264c837840c1cdee88a7b789c882035829b252560405160405180910390a26001905090565b6000600660008373ffffffffffffffffffffffffffffffffffffffff1673ffffffffffffffffffffffffffffffffffffffff168152602001908152602001600020549050919050565b60003373ffffffffffffffffffffffffffffffffffffffff16600160009054906101000a9050505060011515600560009054906101000a900460ff1615151415610b6a57600080fd5b81600660003373ffffffffffffffffffffffffffffffffffffffff1673ffffffffffffffffffffffffffffffffffffffff168152602001908152602001600020541015610bec576040517f08c379a0000000000000000000000000000000000000000000000000000000008152600401610be390611ae1565b60405180910390fd5b600073ffffffffffffffffffffffffffffffffffffffff168373ffffffffffffffffffffffffffffffffffffffff161415610c2657600080fd5b81600760003373ffffffffffffffffffffffffffffffffffffffff1673ffffffffffffffffffffffffffffffffffffffff16815260200190815260200160002060008573ffffffffffffffffffffffffffffffffffffffff1673ffffffffffffffffffffffffffffffffffffffff168152602001908152602001600020819055508273ffffffffffffffffffffffffffffffffffffffff163373ffffffffffffffffffffffffffffffffffffffff167fe1f21c67180317619fcafa578cb44275002011f9ad81f61220c62be2c441533684604051610d049190611726565b60405180910390a36001905092915050565b600060076000600160009054906101000a900473ffffffffffffffffffffffffffffffffffffffff1673ffffffffffffffffffffffffffffffffffffffff1673ffffffffffffffffffffffffffffffffffffffff16815260200190815260200160002060008373ffffffffffffffffffffffffffffffffffffffff1673ffffffffffffffffffffffffffffffffffffffff168152602001908152602001600020549050919050565b60003373ffffffffffffffffffffffffffffffffffffffff16600160009054906101000a905050506001600560006101000a81548160ff0219169083151502179055610e3f576040517f08c379a0000000000000000000000000000000000000000000000000000000008152600401610e3690611be8565b60405180910390fd5b6000600560006101000a81548160ff0219169083151502179055506001600860006101000a81548160ff02191690836001811115610e8057610e7f611b6d565b5b02179055503373ffffffffffffffffffffffffffffffffffffffff167fe29de528965d2fe2a06aafe325d5754d834348a4703d1a8366ba761643957bb360405160405180910390a26001905090565b60003373ffffffffffffffffffffffffffffffffffffffff16600160009054906101000a90505050600073ffffffffffffffffffffffffffffffffffffffff168273ffffffffffffffffffffffffffffffffffffffff161415610f67576040517f08c379a0000000000000000000000000000000000000000000000000000000008152600401610f5e90611c54565b60405180910390fd5b81600160006101000a81548173ffffffffffffffffffffffffffffffffffffffff021916908373ffffffffffffffffffffffffffffffffffffffff1602179055508173ffffffffffffffffffffffffffffffffffffffff167f11bd3ae03dffc45908a76d712d26ce2ed3389fd9a74b3e1468fcaa88557fb37360405160405180910390a260019050919050565b60003373ffffffffffffffffffffffffffffffffffffffff16600160009054906101000a905050504782111561102957600080fd5b8273ffffffffffffffffffffffffffffffffffffffff166108fc839081150290604051600060405180830381858888f1935050505015801561106f573d6000803e3d6000fd5b508273ffffffffffffffffffffffffffffffffffffffff167ff3fef3a3f44f9c277339b67d54f015748bd8d6b77a985b0ab6e71126b018c34a836040516110b69190611726565b60405180910390a26001905092915050565b6000600160009054906101000a900473ffffffffffffffffffffffffffffffffffffffff16905090565b60606003805461110190611ca3565b80601f016020809104026020016040519081016040528092919081815260200182805461112d90611ca3565b801561117a5780601f1061114f5761010080835404028352916020019161117a565b820191906000526020600020905b81548152906001019060200180831161115d57829003601f168201915b5050505050905090565b60606002805461119390611ca3565b80601f01602080910402602001604051908101604052809291908181526020018280546111bf90611ca3565b801561120c5780601f106111e15761010080835404028352916020019161120c565b820191906000526020600020905b8154815290600101906020018083116111ef57829003601f168201915b5050505050905090565b60003373ffffffffffffffffffffffffffffffffffffffff16600160009054906101000a9050505060011515600560009054906101000a900460ff161515141561125f57600080fd5b600073ffffffffffffffffffffffffffffffffffffffff168373ffffffffffffffffffffffffffffffffffffffff16141561129957600080fd5b60008214156112dd576040517f08c379a00000000000000000000000000000000000000000000000000000000081526004016112d490611a75565b60405180910390fd5b600054821115611322576040517f08c379a000000000000000000000000000000000000000000000000000000000815260040161131990611d21565b60405180910390fd5b61137482600660008673ffffffffffffffffffffffffffffffffffffffff1673ffffffffffffffffffffffffffffffffffffffff168152602001908152602001600020546116e690919063ffffffff16565b600660008573ffffffffffffffffffffffffffffffffffffffff1673ffffffffffffffffffffffffffffffffffffffff168152602001908152602001600020819055506001905092915050565b60008054905090565b600060011515600560009054906101000a900460ff16151514156113ed57600080fd5b81600660003373ffffffffffffffffffffffffffffffffffffffff1673ffffffffffffffffffffffffffffffffffffffff16815260200190815260200160002054101561146f576040517f08c379a000000000000000000000000000000000000000000000000000000000815260040161146690611ae1565b60405180910390fd5b600073ffffffffffffffffffffffffffffffffffffffff168373ffffffffffffffffffffffffffffffffffffffff1614156114df576040517f08c379a00000000000000000000000000000000000000000000000000000000081526004016114d690611d8d565b60405180910390fd5b61153182600660008773ffffffffffffffffffffffffffffffffffffffff1673ffffffffffffffffffffffffffffffffffffffff168152602001908152602001600020546116e690919063ffffffff16565b600660008673ffffffffffffffffffffffffffffffffffffffff1673ffffffffffffffffffffffffffffffffffffffff168152602001908152602001600020819055506115c682600660008673ffffffffffffffffffffffffffffffffffffffff1673ffffffffffffffffffffffffffffffffffffffff168152602001908152602001600020546116ba90919063ffffffff16565b600660008573ffffffffffffffffffffffffffffffffffffffff1673ffffffffffffffffffffffffffffffffffffffff168152602001908152602001600020819055508273ffffffffffffffffffffffffffffffffffffffff168473ffffffffffffffffffffffffffffffffffffffff167fbeabacc8ffedac16e9a60acdb2ca743d80c2ebb44977a93fa8e483c74d2b35a8846040516116669190611726565b60405180910390a3600190509392505050565b60008082846116889190611ddc565b905060008414806116a357508284826116a19190611e65565b145b6116b0576116af611e96565b5b8091505092915050565b60008082846116c99190611ec5565b9050838110156116dc576116db611e96565b5b8091505092915050565b6000828211156116f9576116f8611e96565b5b81836117059190611f1b565b905092915050565b6000819050919050565b6117208161170d565b82525050565b600060208201905061173b6000830184611717565b92915050565b600080fd5b600073ffffffffffffffffffffffffffffffffffffffff82169050919050565b600061177182611746565b9050919050565b61178181611766565b811461178c57600080fd5b50565b60008135905061179e81611778565b92915050565b6117ad8161170d565b81146117b857600080fd5b50565b6000813590506117ca816117a4565b92915050565b600080604083850312156117e7576117e6611741565b5b60006117f58582860161178f565b9250506020611806858286016117bb565b9150509250929050565b60008115159050919050565b61182581611810565b82525050565b6000602082019050611840600083018461181c565b92915050565b60006020828403121561185c5761185b611741565b5b600061186a8482850161178f565b91505092915050565b600061187e82611746565b9050919050565b61188e81611873565b811461189957600080fd5b50565b6000813590506118ab81611885565b92915050565b600080604083850312156118c8576118c7611741565b5b60006118d68582860161189c565b92505060206118e7858286016117bb565b9150509250929050565b6118fa81611766565b82525050565b600060208201905061191560008301846118f1565b92915050565b600081519050919050565b600082825260208201905092915050565b60005b8381101561195557808201518184015260208101905061193a565b83811115611964576000848401525b50505050565b6000601f19601f8301169050919050565b60006119868261191b565b6119908185611926565b93506119a0818560208601611937565b6119a98161196a565b840191505092915050565b600060208201905081810360008301526119ce818461197b565b905092915050565b6000806000606084860312156119ef576119ee611741565b5b60006119fd8682870161178f565b9350506020611a0e8682870161178f565b9250506040611a1f868287016117bb565b9150509250925092565b7f596f75206861766520696e70757420616e20696e76616c696420616d6f756e74600082015250565b6000611a5f602083611926565b9150611a6a82611a29565b602082019050919050565b60006020820190508181036000830152611a8e81611a52565b9050919050565b7f596f7520646f206e6f7420686176652073756666696369656e742066756e6473600082015250565b6000611acb602083611926565b9150611ad682611a95565b602082019050919050565b60006020820190508181036000830152611afa81611abe565b9050919050565b7f436f6e747261637420616c726561647920706175736564000000000000000000600082015250565b6000611b37601783611926565b9150611b4282611b01565b602082019050919050565b60006020820190508181036000830152611b6681611b2a565b9050919050565b7f4e487b7100000000000000000000000000000000000000000000000000000000600052602160045260246000fd5b7f436f6e747261637420697320616c726561647920756e70617573656400000000600082015250565b6000611bd2601c83611926565b9150611bdd82611b9c565b602082019050919050565b60006020820190508181036000830152611c0181611bc5565b9050919050565b7f596f752063616e6e6f7420736574206974206173206f776e6572000000000000600082015250565b6000611c3e601a83611926565b9150611c4982611c08565b602082019050919050565b60006020820190508181036000830152611c6d81611c31565b9050919050565b7f4e487b7100000000000000000000000000000000000000000000000000000000600052602260045260246000fd5b60006002820490506001821680611cbb57607f821691505b60208210811415611ccf57611cce611c74565b5b50919050565b7f596f752063616e6e6f74206275726e20656e7469726520737570706c79000000600082015250565b6000611d0b601d83611926565b9150611d1682611cd5565b602082019050919050565b60006020820190508181036000830152611d3a81611cfe565b9050919050565b7f596f752063616e742073656e6420746f207a65726f206163636f756e74000000600082015250565b6000611d77601d83611926565b9150611d8282611d41565b602082019050919050565b60006020820190508181036000830152611da681611d6a565b9050919050565b7f4e487b7100000000000000000000000000000000000000000000000000000000600052601160045260246000fd5b6000611de78261170d565b9150611df28361170d565b9250817fffffffffffffffffffffffffffffffffffffffffffffffffffffffffffffffff0483118215151615611e2b57611e2a611dad565b5b828202905092915050565b7f4e487b7100000000000000000000000000000000000000000000000000000000600052601260045260246000fd5b6000611e708261170d565b9150611e7b8361170d565b925082611e8b57611e8a611e36565b5b828204905092915050565b7f4e487b7100000000000000000000000000000000000000000000000000000000600052600160045260246000fd5b6000611ed08261170d565b9150611edb8361170d565b9250827fffffffffffffffffffffffffffffffffffffffffffffffffffffffffffffffff03821115611f1057611f0f611dad565b5b828201905092915050565b6000611f268261170d565b9150611f318361170d565b925082821015611f4457611f43611dad565b5b82820390509291505056fea2646970667358221220d560c67ab53900585a683367748b7894e8a9fdb93dfa557236e820ffe019f03d64736f6c634300080b0033",
  "immutableReferences": {},
  "source": "pragma solidity ^0.8.11;\r\nlibrary SafeMath {\r\n  /**\r\n   * SafeMath mul function\r\n   * @dev function for safe multiply\r\n   **/\r\n  function mul(uint256 a, uint256 b) internal pure returns (uint256) {\r\n    uint256 c = a * b;\r\n    assert(a == 0 || c / a == b);\r\n    return c;\r\n  }\r\n  \r\n  /**\r\n   * SafeMath div funciotn\r\n   * @dev function for safe devide\r\n   **/\r\n  function div(uint256 a, uint256 b) internal pure returns (uint256) {\r\n    uint256 c = a / b;\r\n    return c;\r\n  }\r\n  \r\n  /**\r\n   * SafeMath sub function\r\n   * @dev function for safe subtraction\r\n   **/\r\n  function sub(uint256 a, uint256 b) internal pure returns (uint256) {\r\n    assert(b <= a);\r\n    return a - b;\r\n  }\r\n  \r\n  /**\r\n   * SafeMath add fuction \r\n   * @dev function for safe addition\r\n   **/\r\n  function add(uint256 a, uint256 b) internal pure returns (uint256) {\r\n    uint256 c = a + b;\r\n    assert(c >= a);\r\n    return c;\r\n  }\r\n}\r\n\r\ncontract MayoralToken{\r\n  //USING THE SAFEMATH LIBRARY FOR ARITHMETIC OPERATIONS\r\n    using SafeMath for uint256;\r\n\r\n    // *******VARIABLE DECLARATION***********/\r\n    uint private TotalSupply;\r\n    address private owner;\r\n    string name;\r\n    string symbol;\r\n    uint decimal;\r\n    bool private paused;\r\n    mapping (address => uint)balanceOf;\r\n    mapping (address => mapping(address => uint))allowed;\r\n    enum Pause{isPaused,notPaused}\r\n    Pause _PAUSE;\r\n    //*******EVENT DECLARARTION********/\r\n    event transfer(address indexed _from,address indexed _to,uint _value);\r\n    event approve(address indexed _from,address indexed _to,uint _value);\r\n    event mint(address indexed _from,uint _value);\r\n    event burn(address indexed _from,uint _value);\r\n    event PAUSE(address indexed _from);\r\n    event UNPAUSE(address indexed _from);\r\n    event increasedallowance(address indexed _from,address indexed _to, uint _value);\r\n    event decreasedallowance(address indexed _from,address indexed _to, uint _value);\r\n    event withdraw(address indexed _to,uint _value);\r\n    event renounceownership(address indexed _to);\r\n\r\n    //**********CONSTRUCTOR TO DECLARE OWNER ADDRESS  */\r\n\r\n    constructor(string memory _name,string memory _symbol,uint _decimal,uint _supply){\r\n      Mint(msg.sender, _supply.mul(10**_decimal));\r\n      emit mint(msg.sender, _supply);\r\n      name = _name;\r\n      symbol = _symbol;\r\n      decimal = _decimal;\r\n      owner = msg.sender;\r\n      balanceOf[owner] = TotalSupply;\r\n      _PAUSE = Pause.notPaused;\r\n\r\n    }\r\n \r\n//***********MODIFIER TO ASSIGN ADDRESS OWNER AS OWNER FOR ACCESS CONTROL */\r\n    modifier OnlyOwner(){\r\n        owner == msg.sender;\r\n        _;\r\n    }\r\n\r\n    //******FUNCTION TO PAUSE CONTRACT INCASE OF ISSUES */\r\n    function PauseContract() public OnlyOwner returns(bool success){\r\n      require(!paused,\"Contract already paused\");\r\n        paused = true;\r\n        _PAUSE = Pause.isPaused;\r\n        emit PAUSE(msg.sender);\r\n        return true;\r\n\r\n    }\r\n\r\n    //**********FUNCTION TO UNPAUSE CONTRACT */\r\n    function UnpauseContract ()public OnlyOwner returns(bool success){\r\n      require(paused = true,\"Contract is already unpaused\");\r\n        paused = false;\r\n        _PAUSE = Pause.notPaused;\r\n        emit UNPAUSE(msg.sender);\r\n        return true;\r\n    }\r\n\r\n    //****FUNCTION TO SHOW OWNER ADDRESS */\r\n\r\n    function ShowOwner()public view returns(address){\r\n      return owner;\r\n    }\r\n\r\n    //*******FUNCTION TO SHOW TOKEN NAME */\r\n\r\n    function ReturnName()public view returns(string memory){\r\n      return name;\r\n    }\r\n\r\n    //**********FUNCTION TO SHOW TOKEN SYMBOL */\r\n\r\n    function ReturnSymbol()public view returns (string memory){\r\n      return symbol;\r\n    }\r\n\r\n    //**********FUNCTION TO SHOW DECIMAL */\r\n\r\n    function ReturnDecimal()public view returns (uint){\r\n      return decimal;\r\n    }\r\n    \r\n    //**********FUNCTION TO SHOW TOKEN SUPPLY */\r\n    function ShowTotalSupply()public view returns (uint){\r\n        return TotalSupply;\r\n    }\r\n\r\n    //**********FUNCTION TO SET ALLOWANCE */\r\n    function SetAllowance(address _recieve,uint _value)OnlyOwner public returns(bool success){\r\n      require(paused != true);\r\n      require(balanceOf[msg.sender] >= _value,\"You do not have sufficient funds\");\r\n      require(_recieve != address(0));\r\n        allowed[msg.sender][_recieve] = _value;\r\n        emit approve(msg.sender,_recieve,_value);\r\n        return true;\r\n    }\r\n\r\n    //**********FUNCTION TO INCREASE ALLOWANCE */\r\n\r\n    function IncreaseAllowance(address _recieve,uint _value)OnlyOwner public returns (bool success){\r\n      require(paused != true);\r\n      require(_recieve != address(0));\r\n      require(balanceOf[msg.sender] > _value,\"You do not have sufficient funds\");\r\n      allowed[msg.sender][_recieve] = allowed[msg.sender][_recieve].add(_value);\r\n      emit increasedallowance(msg.sender, _recieve, _value);\r\n      return true;\r\n    }\r\n    \r\n     //**********FUNCTION TO DECREASE ALLOWANCE */\r\n  \r\n\r\n    function DecreaseAllowance(address _recieve,uint _value)OnlyOwner public returns (bool success){\r\n      require(paused != true);\r\n      require(_recieve != address(0));\r\n      allowed[msg.sender][_recieve] = allowed[msg.sender][_recieve].sub(_value);\r\n       emit decreasedallowance(msg.sender, _recieve, _value);\r\n      return true;\r\n    }\r\n\r\n     //**********FUNCTION TO SEND TOKENS */\r\n\r\n    function Transfer(address _from,address _to,uint _value) public returns(bool success){\r\n      require(paused != true);\r\n        require(balanceOf[msg.sender] >= _value,\"You do not have sufficient funds\");\r\n        require(_to != address(0),\"You cant send to zero account\");\r\n        balanceOf[_from] = balanceOf[_from].sub(_value);\r\n        balanceOf[_to] = balanceOf[_to].add( _value);\r\n        emit transfer(_from, _to,_value);\r\n        return true;\r\n    }\r\n\r\n     //**********FUNCTION TO CHECK BALANCE OF HOLDERS */\r\n\r\n    function CheckBalance(address _who)public view returns(uint){\r\n        return balanceOf[_who];\r\n    }\r\n\r\n     //**********FUNCTION TO MINT MORE TOKENS */\r\n\r\n    function Mint(address _from,uint _value)OnlyOwner public returns(bool success){\r\n      require(paused != true);\r\n      require(_from != address(0));\r\n        require(_value != 0,\"You have input an invalid amount\");\r\n        TotalSupply = TotalSupply.add(_value);\r\n        balanceOf[_from] = balanceOf[_from].add(_value);\r\n        return true;\r\n    }\r\n\r\n     //**********FUNCTION TO BURN TOKENS */\r\n\r\n    function Burn(address _from,uint _value)OnlyOwner public returns(bool success){\r\n      require(paused != true);\r\n      require(_from != address(0));\r\n      require(_value != 0,\"You have input an invalid amount\");\r\n      require(_value <= TotalSupply,\"You cannot burn entire supply\");\r\n      balanceOf[_from] = balanceOf[_from].sub(_value);\r\n      return true;\r\n    }\r\n\r\n    //******WITHDRAW FUNCTION INCASE OF ACCIDENTAL ETHER TRANSFER */\r\n    function Withdraw(address payable _to,uint _value)public OnlyOwner returns (bool success){\r\n      require(_value <= address(this).balance);\r\n      _to.transfer(_value);\r\n      emit withdraw(_to,_value);\r\n      return true;\r\n      \r\n    }\r\n\r\n    //***********RENOUNCE OWNERSHIP */\r\n    function Renounce(address _to)public OnlyOwner returns(bool success){\r\n      require(_to != address(0),\"You cannot set it as owner\");\r\n      owner = _to;\r\n      emit renounceownership(_to);\r\n      return true;\r\n      \r\n\r\n    }\r\n\r\n    //*******CHECK ALLOWANCE */\r\n    function CheckAllowance(address _to)public view returns(uint){\r\n      return allowed[owner][_to];\r\n    }\r\n}   ",
  "sourcePath": "C:\\Users\\MAYOWA\\Desktop\\MayoralToken\\contracts\\MayoralToken.sol",
  "compiler": {
    "name": "solc",
    "version": "0.8.11+commit.d7f03943.Emscripten.clang"
  },
  "schemaVersion": "3.4.5",
  "updatedAt": "2022-06-10T03:52:17.207Z",
  "networkType": "ethereum",
  "devdoc": {
    "kind": "dev",
    "methods": {},
    "version": 1
  },
  "userdoc": {
    "kind": "user",
    "methods": {},
    "version": 1
  }
}